:020000040000FA
:100000000C9420040C94A13E0C94763E0C944B3E30
:100010000C9410420C949B410C9426410C94B140DA
:100020000C94FC3F0C9413400C944A040C945940DB
:100030000C944A040C944A040C944A040C9487408F
:100040000C944A040C944A040C94013E0C944A0407
:100050000C94CB3D0C94A13D0C944A040C944A049E
:100060000C944F400C944A040C94CC3E0C944A04DB
:100070000C944A040C944A040C944A040C944A04C8
:100080000C944A040C944A040C944A04080000009E
:10009000BE922449123EABAAAA2ABECDCCCC4C3E7D
:1000A00000000080BEABAAAAAA3E00000000BF006C
:1000B0000000803F0000000000084178D3BB438768
:1000C000D1133D190E3CC3BD4282AD2B3E68EC827C
:1000D00076BED98FE1A93E4C80EFFFBE01C4FF7F01
:1000E0003F000000000000407A10F35A00A0724E5A
:1000F00018090010A5D4E80000E87648170000E4CD
:100100000B54020000CA9A3B000000E1F505000014
:1001100080969800000040420F000000A086010079
:100120000000102700000000E80300000000640049
:10013000000000000A0000000000010000000000B4
:100140002C76D888DC674F0823DFC1DFAE59E1B1D8
:10015000B796E5E3E453C63AE651997696E8E6C2E7
:100160008426EB898C9B62ED407C6FFCEFBC9C9FEE
:1001700040F2BAA56FA5F490055A2AF75C936B6C10
:10018000F9676DC11BFCE0E40D47FEF520E6B50004
:10019000D0ED902E0300943577050080841E080072
:1001A00000204E0A000000C80C333333330F986E22
:1001B00012831141EF8D2114893BE65516CFFEE6DF
:1001C000DB18D1844B381BF77C1D901DA4BBE424A5
:1001D000203284725E228100C9F124ECA1E53D2722
:1001E00030003030003030300030303030003030CF
:1001F000303030003030303030300030303030305F
:100200003030000D0A002000202D200020002000AA
:100210002000200020002000202020202000312E5F
:100220002054656D706572617475722020202020E5
:100230003A200045786974696E672043616C696291
:10024000726174696F6E204D6F6465002D43414C7F
:100250002074656D70657261747572652020203A36
:1002600020002D43414C2061636964566F6C7461BA
:1002700067652020203A20002D43414C206E657593
:100280007472616C566F6C746167653A20005361DB
:1002900076696E672043616C6962726174696F6E22
:1002A0002056616C7565733A005354415254494E5F
:1002B0004720414741494E0043414C204641494C6B
:1002C00045440050482034203A2000504820372030
:1002D0003A2000430054656D702E3A200053617639
:1002E000696E672063616C69622E206461746100CD
:1002F000507265737320627574746F6E005265611D
:1003000064696E6720342E3020444F4E4500507291
:1003100065737320627574746F6E00507574206914
:100320006E20342E3020736F6C7574696F6E0050C0
:100330007265737320627574746F6E0052656164C8
:10034000696E6720372E3020444F4E45005072654D
:10035000737320627574746F6E0050757420696ECB
:1003600020372E3020736F6C7574696F6E00507279
:1003700065737320627574746F6E0043414C49421B
:10038000524154494F4E204D4F44450043414C4942
:100390004220535445502000322E2054656D706524
:1003A000726174757220202020203A2000202020C5
:1003B00020202020204F5250202020202020203A92
:1003C00020000D0A002D43414C2074656D7065724C
:1003D00061747572652020203A20002D43414C2025
:1003E00061636964566F6C746167652020203A20F0
:1003F000002D43414C206E65757472616C566F6CB4
:10040000746167653A2000526573746F7265642089
:1004100043616C6962726174696F6E2056616C75BC
:1004200065733A00202020202020202020504820E2
:100430002020202020203A20000D0A002920202002
:10044000202020206D4261723A20002B507265738B
:100450007375726520202823002920416E616C6F1E
:1004600067776572743A20002B50726573737572EA
:100470006520202823004D657373756E6720230067
:100480002A4C4344204261636B6C69676874204F57
:100490006E74696D65203A20002A53656E64656943
:1004A0006E74657276616C6C202020202020203ACA
:1004B00020002A4D657373696E74657276616C6C89
:1004C00020202020202020203A2000456E746572D4
:1004D000696E672043616C6962726174696F6E2036
:1004E0004D6F6465000D0A000D0A000D0A000D0A2B
:1004F000000D0A0000206C6F6E6772656C65617399
:10050000656400206C6F6E6770726573736564005C
:10051000206465626F756E63650020707265737329
:100520006564002072656C656173656400524553B3
:100530004554002D3E2000007761697441636B3A99
:1005400020003C2D2000424F4F544C4F4144455217
:1005500000484156452044415441002D3E20000DA5
:100560000A002A546F67676C655761697454696D36
:1005700065202020202020203A20002A466C6F771A
:100580005261746551466163746F7220202020208F
:10059000203A20002A4F7270202020202020202086
:1005A000204F66667365742020203A20002A322E80
:1005B00054656D7065726174757265204F666673FF
:1005C0006574203A20002A312E54656D7065726181
:1005D00074757265204F6666736574203A20000159
:1005E0000820212230083056570203040506070868
:1005F000090A0B0C6D6561737572656420566F6C2A
:100600007461676520203A20002920203A2000618B
:100610006E616C6F6756616C756520280050616370
:100620006B657420746F6F206269673A20004352D3
:1006300043204661696C65640000002200250028A3
:10064000002B000000000203000A0B000000000560
:100650000409080000000000000000000000000085
:10066000000000436F6E66696720467265713A202C
:10067000307832310000002100240027002A0020B9
:100680002D20726561647900434320566572736959
:100690006F6E3A2000002E0206030D04E905CA071A
:1006A0000C0B060D210E650F6A10C811931203156D
:1006B000341703181819161B431E2F1F65207823A3
:1006C000E9242A251F26113E033100434320696E89
:1006D0006974000D0A00496E69742053746F726169
:1006E00067653A20000A0B0C1F20210E02202D20E6
:1006F00000416464726573732053706163653A20CE
:10070000004D617220313020323032332031393A9D
:1007100032303A343800202041736B53696E2B2BF2
:100720002076352E302E320041736B53696E2B2BA1
:100730002076352E302E3220284D61722031302027
:10074000323032332031393A32303A3438290020CD
:10075000726561643A200020657870656374656431
:100760003A20004572726F72206174200000000010
:100770000000000000021405050000000002010A4C
:100780000100000000000000000000000000000068
:100790000000000000060305010101010A06010135
:1007A000010501050A020602020000000005010819
:1007B00004040404000102030405060708090A00F2
:1007C0000020002300260029000001020304050682
:1007D00007000102030405060700010203040506E1
:1007E00007000102030405060702020202020202D8
:1007F00002040404040404040403030303030303C2
:10080000030101010101010101010204081020405E
:1008100080010204081020408001020408102040DA
:10082000800102040810204080F31801554E495001
:100830004F4F4C47303100F318105301010044432F
:1008400011241FBECFEFD0E4DEBFCDBF27E0AAED5D
:10085000B3E001C01D92AC3FB207E1F713E0A0E0A6
:10086000B1E0ECE9F6EA00E00BBF02C007900D92A0
:10087000AA3DB107D9F714E0C0E2D4E004C0219743
:10088000FE010E941951CF31D107C9F70E94B1452D
:100890000C944C530C9400009091D80481E0913258
:1008A00008F043C08091B4048111FCCF8091D7043B
:1008B00022E02093B40421E02093B3042FEF20938F
:1008C000B20427EB34E03093B1042093B0041092CB
:1008D000AF049093AE041092AD049091AD04880FD4
:1008E000892B8093AD048091AC04813029F510925E
:1008F000AC048091AD048093BB008091BC0083FD6B
:10090000F8CF85EC8093BC008091B4048230E1F391
:100910008091B2048F3F91F08091B204803281F0D7
:100920008091B204803371F084E01092B60410928A
:10093000D8041092B504089585EEE4CF80E0F5CF99
:1009400082E0F3CF83E0F1CF823009F4C4C096EFA8
:10095000980F923008F4BFC090E0FC01E75FF74FBA
:100960002491FC01E751F84F3491313091F54091D9
:10097000AB04422B4093AB044091A704422B40931D
:10098000A7048753984FFC01A491313009F047C068
:10099000B0E0AA0FBB1FAC56BB4F6D937C93E1EC4C
:1009A000F7E0A591B4918C91809393048BE690E04D
:1009B0009093920480939104809168008160809369
:1009C0006800A0919104B0919204EC912E2B2C938D
:1009D0000895323059F44091AA04422B4093AA045E
:1009E0004091A604422B4093A604CBCF333009F0AC
:1009F00065C04091A904422B4093A9044091A504ED
:100A0000422B4093A504BDCF4091A804422B4093B4
:100A1000A8044091A404422B4093A404B2CF3230E6
:100A2000C1F4B0E0AA0FBB1FAF57BB4F6D937C93CF
:100A3000E3ECF7E0A591B4918C91809380048CE66F
:100A400090E090939204809391048091680082607A
:100A5000B6CF3330C1F4B0E0AA0FBB1FA059BB4FD3
:100A60006D937C93E5ECF7E0A591B4918C91809324
:100A70006F048DE690E090939204809391048091AE
:100A8000680084609CCF343009F09BCFB0E0AA0F9F
:100A9000BB1FA15ABB4F6D937C93E7ECF7E0A59188
:100AA000B4918C9180935E0483E790E090939204DC
:100AB0008093910480916800886081CF343009F47C
:100AC000A3CF323009F48CCF333009F497CF3430D0
:100AD00009F49FCF56CF08958CBD9DBD089508950C
:100AE0000895982F8091B4048111FCCF81E0809308
:100AF000B4048093B3042FEF2093B20428E334E0CE
:100B00003093B1042093B0041092AF042FEF260F5E
:100B10002093AE048093AD048091AD04990F982B7F
:100B20009093AD048091AC048130C9F41092AC0470
:100B30008091AD048093BB008091BC0083FDF8CF11
:100B400085EC8093BC008091B4048130E1F3809106
:100B5000AF04861710F46091AF04862F089585EED8
:100B6000F0CF0F931F93CF93DF93E0914906F0E00E
:100B7000EE0FFF1FE65BF94FC081D181E881F9815B
:100B80000284F385E02DCE0109958C01E881F9817D
:100B90000680F781E02DCE010995800F911FDF912E
:100BA000CF911F910F91089508950895EF92FF92AC
:100BB0000F931F93CF93DF938C017B01D0E0C0E0B4
:100BC000F701EC0FFD1F6491662361F0D801ED91F0
:100BD000FC910190F081E02DC8010995892B11F05D
:100BE0002196EECFCE01DF91CF911F910F91FF9013
:100BF000EF900895AF92BF92CF92DF92EF92FF9263
:100C00000F931F93CF93DF936C017B018B01040F34
:100C1000151FEB015E01AE18BF08C017D10759F0D0
:100C20006991D601ED91FC910190F081E02DC60112
:100C30000995892B79F7C501DF91CF911F910F910C
:100C4000FF90EF90DF90CF90BF90AF900895FC01A0
:100C5000448155816081718182EA97E00C94FA05A4
:100C6000FC01538D448D252F30E0842F90E0821BB2
:100C7000930B541710F0CF96089501970895FC0137
:100C8000918D828D981761F0A28DAE0FBF2FB11D8F
:100C90005D968C91928D9F5F9F73928F90E00895E7
:100CA0008FEF9FEF0895FC01918D828D981731F0A1
:100CB000828DE80FF11D858D90E008958FEF9FEFF5
:100CC0000895FC01918D228D892F90E0805C9F4FCB
:100CD000821B91098F739927089589ED94E00E94F2
:100CE000610621E0892B09F420E0822F0895FC01A0
:100CF000A48DA80FB92FB11DA35ABF4F2C91848D7D
:100D000090E001968F739927848FA689B7892C93D9
:100D1000A089B1898C91837080648C93938D848D2C
:100D2000981306C00288F389E02D80818F7D80832F
:100D30000895EF92FF920F931F93CF93DF93EC01EF
:100D400081E0888F9B8D8C8D98131AC0E889F98972
:100D5000808185FF15C09FB7F894EE89FF89608375
:100D6000E889F98980818370806480839FBF81E0F6
:100D700090E0DF91CF911F910F91FF90EF90089538
:100D8000F62E0B8D10E00F5F1F4F0F731127E02E13
:100D90008C8D8E110CC00FB607FCFACFE889F9894B
:100DA000808185FFF5CFCE010E947706F1CFEB8DD4
:100DB000EC0FFD2FF11DE35AFF4FF0829FB7F8941F
:100DC0000B8FEA89FB8980818062CFCFCF93DF933D
:100DD000EC01888D8823B9F0AA89BB89E889F98953
:100DE0008C9185FD03C0808186FD0DC00FB607FC88
:100DF000F7CF8C9185FFF2CF808185FFEDCFCE01BB
:100E00000E947706E9CFDF91CF91089580E090E0CE
:100E1000892B29F00E946D0681110E94000080E05C
:100E200090E0892B49F080E090E0892B29F00E9426
:100E3000000081110C940000089582508A3088F5DA
:100E4000E82FF0E0EA5DF84F0C9419514E07520775
:100E500030073607510751073A07400744074A074A
:100E6000809180008F77809380000895809180002A
:100E70008F7DF9CF8091B0008F778093B000089577
:100E80008091B0008F7DF9CF809190008F77809313
:100E900090000895809190008F7DF9CF84B58F7771
:100EA00084BD089584B58F7DFBCFCF93DF93282F2A
:100EB00030E0F901ED5BF94F8491F901E75FF74FFD
:100EC000D491F901E751F84FC491CC23A1F08111DD
:100ED0000E941D07EC2FF0E0EE0FFF1FE154F84FCA
:100EE000A591B491EC91ED2381E090E009F480E0CC
:100EF000DF91CF91089580E090E0FACF1F93CF93D8
:100F0000DF93282F30E0F901ED5BF94F8491F9016F
:100F1000E75FF74FD491F901E751F84FC491CC2323
:100F2000A9F0162F81110E941D07EC2FF0E0EE0FA3
:100F3000FF1FE75CF94FA591B4918FB7F894EC913E
:100F4000111108C0D095DE23DC938FBFDF91CF91C4
:100F50001F910895DE2BF8CF10925D0410925C046F
:100F60001092B6041092D8041092B40481E08093D9
:100F7000B3041092AC0461E081E10E947E0761E05D
:100F800080E10E947E07E9EBF0E080818E7F808324
:100F900080818D7F808380E28093B80085E4809398
:100FA000BC008FE695E090935B0480935A0480E741
:100FB00095E090935904809358040895CF93DF935C
:100FC00090E0FC01E75FF74F24918751984FFC01B7
:100FD00084918823C9F090E0880F991FFC01EB5899
:100FE000F94FA591B491FC01E75CF94FC591D491FB
:100FF00061110DC09FB7F8948C91209582238C933A
:101000008881282328839FBFDF91CF910895623084
:1010100051F49FB7F8943C91822F809583238C9351
:10102000E8812E2BEFCF8FB7F894EC912E2B2C93D9
:101030008FBFEACF8851806480937C0080917A00D2
:10104000806480937A0080917A0086FDFCCF809145
:101050007800909179000895000000008330910598
:1010600028F0880F991F05970197F1F708953FB76A
:10107000F8948091310490913204A0913304B0919E
:10108000340426B5A89B05C02F3F19F00196A11D79
:10109000B11D3FBFBA2FA92F982F8827BC01CD01C2
:1010A000620F711D811D911D43E0660F771F881F20
:1010B000991F4A95D1F708958F929F92AF92BF9250
:1010C000CF92DF92EF92FF924B015C010E943708B2
:1010D0006B017C010E9437086C197D098E099F09FC
:1010E000683E734081059105A8F321E0821A9108BA
:1010F000A108B10888EEC80E83E0D81EE11CF11CDF
:1011000081149104A104B10429F7FF90EF90DF90BE
:10111000CF90BF90AF909F908F90089585ED809372
:10112000BC008091BC0084FDFCCF1092B4040895F3
:1011300020910904260F3327331F21323105ECF4A7
:101140002091B404FC0190E080E0243069F082E05A
:101150000895A09109042191AC0147515C4FA40F5F
:10116000B52FB11D2C930196861798F38091090431
:10117000680F6093090480E0089581E00895089560
:10118000E0915D0480915C04E81730F4F0E0E85CE5
:10119000FB4F808190E008958FEF9FEF089590912D
:1011A0005D0480915C042FEF3FEF981748F4E92F1E
:1011B000F0E0E85CFB4F208130E09F5F90935D049E
:1011C000C901089580915C0490915D04891B990B7D
:1011D0000895CF92DF92EF92FF920F931F93CF93D8
:1011E000DF937C01CB018A012091B504222389F091
:1011F000EB016B01C40ED51ECC15DD0569F06991BC
:10120000D701ED91FC910190F081E02DC701099586
:10121000F3CF642F0E949808C801DF91CF911F91EE
:101220000F91FF90EF90DF90CF900895CF93DF93D1
:101230001F92CDB7DEB769832091B5042223F9F060
:101240002091D804203258F021E030E0FC013383B3
:10125000228390E080E00F90DF91CF9108958091FC
:10126000B604E82FF0E0E954FB4F998190838F5F3B
:101270008093B6048093D80481E090E0ECCF61E0E5
:10128000CE0101960E949808F7CF682F8BE895E071
:101290000C941609FC01248131E03093B5042093AD
:1012A000D7041092B6041092D8048385862B90E060
:1012B0000E9445090C944C040F931F93CF938C010B
:1012C000C62F0E944A096C2F6460C8010E944A0917
:1012D00081E090E00E942C086C2F6B7FC8010E9477
:1012E0004A0982E390E0CF911F910F910C942C0852
:1012F0000F931F93CF93DF938C01D62FC42F607F62
:10130000642B0E945C0980E1D89FB00111246C2BF2
:10131000C801DF91CF911F910F910C945C0940E0BF
:1013200061E082EA97E00E94780980ED97E00C94F2
:101330002C08CF93DF93CDB7DEB728970FB6F8947C
:10134000DEBF0FBECDBF28E0ECE0F1E0DE0111967C
:1013500001900D922A95E1F7FC012085241710F4E5
:101360004FEF420F50E0440F551F21E030E02C0FAB
:101370003D1F420F531FFA012081620F606840E059
:1013800028960FB6F894DEBF0FBECDBFDF91CF9188
:101390000C94780941E00E94780981E090E008957A
:1013A000CF93C62FFC01808191E09093B504809388
:1013B000D7041092B6041092D80460E08BE895E050
:1013C0000E9416096C2F8BE895E00E941609CF91B8
:1013D0000C944C0490E080E00895663050F4FC01D9
:1013E000808191810A96F5E06F9F800D911D1124F7
:1013F000089590E080E008956A3050F4FC01808107
:1014000091810596F5E06F9F800D911D112408953F
:1014100090E080E0089586E00E945507892BD9F777
:10142000089561E084E00C947E0760E084E00C9411
:101430007E076A3050F4FC01808191810496FAE1C4
:101440006F9F800D911D1124089590E080E0089514
:101450008B3028F08B500E94280A80680895E82F6E
:10146000F0E0E751FA4F84910895843030F4E82F8A
:10147000F0E0EB51FA4F849108958FEF0895853095
:1014800030F4E82FF0E0E052FA4F849108958FEFA6
:101490000895813011F08FEF089580E0089588233A
:1014A00011F08FEF089581E00895811104C0EFEDF0
:1014B000F5E0849108958FEF08958FEF08958FEFF1
:1014C00008958A3030F4E82FF0E0EB54F84F84911F
:1014D00008958FEF0895CF92DF92FF920F931F939D
:1014E000CF93DF9300D000D000D01F92CDB7DEB7EE
:1014F000211126C0DC019E968D919C919A8389834F
:1015000088E08B8389E59DE09D838C8383EF9DE05C
:101510009F838E8329813A814B815C816D817E819D
:101520008F8190E027960FB6F894DEBF0FBECDBF37
:10153000DF91CF911F910F91FF90DF90CF90089591
:10154000662309F450C0FC0135A5361708F44BC0DA
:10155000E62FF0E07796EE0FFF1FE80FF91F0081EE
:101560001181D801ED91FC91213091F406A8F7A9E1
:10157000E02DC80127960FB6F894DEBF0FBECDBF91
:10158000DF91CF911F910F91FF90DF90CF90099441
:10159000F22E6A0106ACF7ADE02DC8010995D8011D
:1015A000ED91FC91882339F0B2E0FB1204C000AC4D
:1015B000F1ADE02DDECFE05CFF4F0190F081E02D3A
:1015C000C8010995D801ED91FC91882319F0B3E089
:1015D000FB1689F0EE5BFF4F0190F081E02DC80112
:1015E000099581111BC01A8219821B821D821C82DF
:1015F0001F821E828FCF02ACF3ADE02DB601C80171
:1016000027960FB6F894DEBF0FBECDBFDF91CF9106
:101610001F910F91FF90DF90CF900994E4E0FE12AC
:10162000E2CFD801ED91FC9104ACF5ADE02DE6CF11
:10163000FC0110860895CF93DF93EC019C81433029
:1016400029F48A8993FF07C060E006C0463031F470
:101650008A8993FFF9CF61E00E947E078C818460C4
:101660008C83DF91CF91089580E0089581E0089503
:10167000CF93DF9300D000D000D01F92CDB7DEB75C
:101680001A8219822DE53AE03D832C838FE59AE09A
:101690009F838E833A81522F6D81782F20E041E025
:1016A0008F8190E027960FB6F894DEBF0FBECDBFB6
:1016B000DF91CF910895CF93DF9300D000D000D079
:1016C0001F92CDB7DEB7FC01218932892C5F3F4FD5
:1016D0003A8329834DE55AE05D834C838FE59AE098
:1016E0009F838E833A81542F6D81782F41E08F81C3
:1016F00090E027960FB6F894DEBF0FBECDBFDF9106
:10170000CF910895CF93DF9300D000D000D01F92E7
:10171000CDB7DEB7FC01218982898A8345E35AE08F
:101720005D834C838DE09EE09F838E833A81542FAE
:101730006D81782F44E08F8190E027960FB6F89462
:10174000DEBF0FBECDBFDF91CF9108950895FC019C
:101750008285863011F088EC089580E0089581E05C
:101760000895FC018785869581700895FC01278581
:1017700060FB21F927870895FC019681662319F003
:101780009460968308959B7FFCCFFC01868182FB49
:10179000882780F908958AE00895FC01818992895B
:1017A0000895FC018089089588E091E00895FC0186
:1017B00076876587408B328B218B0895CF93DF939B
:1017C00000D000D000D01F92CDB7DEB7FC01268537
:1017D00037852B5F3F4F3A8329834DE55AE05D8380
:1017E0004C838FE59AE09F838E833A81542F6D81DD
:1017F000782F41E08F8190E027960FB6F894DEBFF6
:101800000FBECDBFDF91CF910895CF93DF9300D06E
:1018100000D000D01F92CDB7DEB7FC0126858785AA
:101820008A834FE35AE05D834C838CEE9DE09F8377
:101830008E833A81542F6D81782F45E08F8190E01F
:1018400027960FB6F894DEBF0FBECDBFDF91CF91C4
:101850000895FC01858D81118EE00895FC01838D32
:10186000089580E00895FC0184858695817008952F
:10187000FC01248560FB21F924870895FC0124855F
:1018800060FB20F924870895FC0184858170089508
:10189000FC01868597850895FC018585089587E379
:1018A00090E00895FC017387628745873787268714
:1018B0000895CF93DF9300D000D000D01F92CDB712
:1018C000DEB7FC0126853785265F3F4F3A832983A3
:1018D0004DE55AE05D834C838FE59AE09F838E83CC
:1018E0003A81542F6D81782F41E08F8190E02796C7
:1018F0000FB6F894DEBF0FBECDBFDF91CF91089534
:10190000CF93DF9300D000D000D01F92CDB7DEB7C9
:10191000FC01268587858A8341E65AE05D834C83F6
:1019200082EE9DE09F838E833A81542F6D81782FC4
:101930004AE08F8190E027960FB6F894DEBF0FBE85
:10194000CDBFDF91CF910895FC01EA5AFF4F20816E
:10195000211108C0885A9F4FFC018081811104C069
:1019600084E0089582E0089580E0089580E008957D
:10197000FC018485869581700895FC01248560FBB7
:1019800021F924870895FC01248560FB20F9248730
:101990000895FC0184858170089586E00895FC0116
:1019A000868597850895FC018585089588E290E0F5
:1019B0000895CF93DF9300D000D000D01F92CDB711
:1019C000DEB7FC0126813781265F3F4F3A832983AA
:1019D0004DE55AE05D834C838FE59AE09F838E83CB
:1019E0003A81542F6D81782F41E08F8190E02796C6
:1019F0000FB6F894DEBF0FBECDBFDF91CF91089533
:101A0000CF93DF9300D000D000D01F92CDB7DEB7C8
:101A1000FC01268187818A8341E65AE05D834C83FD
:101A200082EE9DE09F838E833A81542F6D81782FC3
:101A30004AE08F8190E027960FB6F894DEBF0FBE84
:101A4000CDBFDF91CF910895FC018481869581708F
:101A50000895FC01248160FB21F924830895FC0191
:101A6000248160FB20F924830895FC018481817026
:101A7000089581E00895FC01868197810895FC0115
:101A8000858108958FE090E00895FC01738362835F
:101A900045833783268308950895E0913604F091B5
:101AA0003704838581FD03C083858C608387089517
:101AB0000895883030F4E82FF0E0EB51F94F84912D
:101AC00008958FEF0895FC018289938960E0911158
:101AD00001C061E00C947E07FC018289938961E07A
:101AE000911101C060E00C947E07089508956A305A
:101AF00028F404960E94190A0496089590E080E064
:101B000008950895089508950895089508950895ED
:101B10000895089508950895BC0189ED94E00C940A
:101B2000D6050E948C0D81EF94E00C948C0D0F93E0
:101B30001F93CF938C01C62F80E195E06430A1F014
:101B400058F483E295E0623079F08AE195E0633001
:101B500059F084EF94E008C083E095E0653021F00F
:101B600085EF94E06630A9F70E94910DC770F801E7
:101B70008085887FC82BC087CF911F910F910895D2
:101B800008950895089508950895FC01808591852C
:101B9000FC0110A260E045960C944A09089508954E
:101BA0000895982FFB0180E02491291729F08F5F79
:101BB00031964813F9CF8FEF089541E06FED75E04E
:101BC0000C94D10D4AE065EB77E00C94D10D45E023
:101BD00060EE75E00C94D10D0C94E70D48E065EED5
:101BE00076E00C94D10D0C94EE0D4BE069EE75E0AF
:101BF0000C94D10DCF93C0E09BE09C0F87FF03C0F6
:101C00008F77C92FF9CF0E94F50D8C0FCF910895D2
:101C100044E065EE75E00C94D10D0C94080E862717
:101C200028E0BC0176956795AC014170552780FF8F
:101C300002C041E050EACB0184279527215089F763
:101C40000895FC011082118212821382168215827D
:101C50001482118610861782128613860895FC015D
:101C60008081811109C08181811106C081E092814A
:101C7000911103C080E0089581E00895DC01FB012B
:101C80009C91808198130BC011969C911197818132
:101C9000981305C081E012962C919281291380E05F
:101CA0000895CF93DF93EC01FB0180818F838181C5
:101CB0008887828189876FE775E0CF010E943E0E99
:101CC000882321F08A818F7D84608A83DF91CF9180
:101CD0000895FC013381FB012381321302C00C946F
:101CE0003E0E80E00895CF93DF9300D000D0CDB7B3
:101CF000DEB7FC0180899485998395859A839685C2
:101D00009B838C83882389F0BF01645F7F4FCE0162
:101D100001960E94690E811108C082E00F900F9019
:101D20000F900F90DF91CF91089581E0F7CF2FB7FB
:101D3000F894FC01808191812FBF0895CF92DF92AA
:101D4000EF92FF92CF93DF93EC0187E895E00E943A
:101D5000970E0097D9F00297C12CD12C76010097ED
:101D6000A9F0FC01258136814781642FA90170E02B
:101D7000C40ED51EE61EF71E8C179D0751F0029665
:101D80000E94970E009711F00297E9CFC12CD12C39
:101D90007601C701B601DF91CF91FF90EF90DF9000
:101DA000CF90089502960E949E0E672B682B692B98
:101DB00011F480E0089580E40895FF920F931F933B
:101DC000CF93DF93EC018B01FFB6F8940E94970E3E
:101DD0009C019FB7F894F801318320839FBF8FB790
:101DE000F894198308838FBFFFBEDF91CF911F91B5
:101DF0000F91FF9008956F927F928F92DF92EF92F2
:101E0000FF920F931F93CF93DF937B0122E0E20EAB
:101E1000F11CDB0115962D913D914C91232B242B28
:101E200009F44DC0EB01DFB6F8942C8122602C83BD
:101E30008C010E94970E009709F43EC0FC01329776
:101E4000A1F06580768087802D813E814F81CF0112
:101E5000029662167306840650F42619370948095B
:101E60002D833E834F838C01E4CF90E080E02FB739
:101E7000F8949B838A832FBF8FB7F894D801ED9293
:101E8000FC928FBF309761F085819681A7812D816B
:101E90003E814F81821B930BA40B85839683A7837E
:101EA000DFBEDF91CF911F910F91FF90EF90DF90F8
:101EB0008F907F906F900895F0E0E0E0D8CFB70169
:101EC0000296DF91CF911F910F91FF90EF90DF90DD
:101ED0008F907F906F900C94DD0ECF93DF93EC0189
:101EE0007B876A874D873F872E8760E08DE10E9460
:101EF000DE0761E08FE00E94DE0760E08FE00E9475
:101F00007E0760E08FE10E94DE0760E088E10E94CA
:101F1000DE0760E089E10E94DE07BE016E5F7F4F51
:101F200087E895E0DF91CF910C94FB0E1F93CF9340
:101F3000DF93EC01FB012885922F9770943079F0A4
:101F400040F4923051F0933039F1DF91CF911F91ED
:101F50000895953009F19630C1F711E012C023FDC4
:101F600021C02A853B852550310913E02115310513
:101F700041F040E02D833E834F83BE01CF010E949C
:101F8000FB0EE881F9810680F781E02D612FCE01FB
:101F9000DF91CF911F91099423FDD7CF2A853B85EF
:101FA00015E0E4CF25E030E012E0E3CF0F931F937C
:101FB000CF93DF93EC018B01E88981E08E0F888B52
:101FC000EC0FFD2FF11D228530E0A4E6B0E00E9469
:101FD000014F2AE030E040E050E00E94D8502D83CD
:101FE0003E834F83BE01C8010E94FB0E8889817029
:101FF000DF91CF911F910F910895EF92FF920F9370
:102000001F93CF93DF93EC01FFB6F8940E94970ED5
:102010008C01892B71F0EFB6F894CE010E94970ED7
:102020000E94970E9C019FB7F894398328839FBF25
:10203000EFBEFFBEC801DF91CF911F910F91FF90BE
:10204000EF900895BF92CF92DF92EF92FF920F939D
:102050001F93CF93DF93EC01FFB6F8948C818D7FB3
:102060008C8387E895E00E94970E0097C9F19C0148
:102070002250310987E895E02115310589F1890160
:102080000E5F1F4FC217D30709F50E94FD0FC8014D
:102090000E94970E009779F0FC01329761F08581DC
:1020A0009681A7812D813E814F81820F931FA41FAE
:1020B00085839683A783FFBEDF91CF911F910F91F8
:1020C000FF90EF90DF90CF90BF900895C8010E94DD
:1020D000970E009729F09C0122503109C801CCCFFE
:1020E0006E0182E0C80ED11CEFB6F894BFB6F8942A
:1020F00089E895E00E94970EEC0129E835E02097E9
:1021000079F010E000E0CC16DD0609F48901CE017B
:102110000E94970E9E010115110521F4EC01EFCFED
:1021200010E000E0BFBE0115110511F4EFBEC3CFF2
:10213000C8010E94FD0FFACFEF92FF920F931F93F9
:10214000CF93DC0118960D911C91F80181850E94B6
:102150005507D8011896CC911897C3FBEE24E0F8E8
:10216000F12C8E151F04C9F180FBC3F91896CC938E
:10217000C770C33031F0C53021F0C130C1F4C4E0C4
:1021800007C0F801808583FF12C0C33021F1C6E08B
:10219000C8010E94221085E090E0A0E0F80185834C
:1021A0009683A783B80187E895E00E94FB0ED801CB
:1021B00018968C91189787708C1779F0ED91FC9197
:1021C0000680F781E02D6C2FC801CF911F910F91F0
:1021D000FF90EF900994C2E0DBCFCF911F910F9158
:1021E000FF90EF900895CF93DF93EC012C96CE01F2
:1021F0000E942210BE0187E895E0DF91CF910C94F8
:10220000FB0E83E096E00C94F31088EE95E00C94BE
:10221000F3108DEC95E00C94F31082EB95E00C94A8
:10222000F31087E995E00C94F310CF93DF93EC0162
:1022300083E392E00E94910DCE010E960E9422103F
:1022400060E08FE00E947E07FE01EC5AFF4F108293
:10225000CE010E9422108A8581608A8784E690E000
:10226000A0E08D839E83AF83BE0187E895E0DF9178
:10227000CF910C94FB0E1F93CF93DF93EC01162F9D
:102280000E942210212F30E0A4E6B0E00E94014F0E
:102290006D837E838F838885998528E0FC0120A348
:1022A00060E045960E944A09BE0187E895E0DF910B
:1022B000CF911F910C94FB0ECF92DF92EF92FF9281
:1022C000CF93DF93EC016A017B010E949E0E6C1597
:1022D0007D058E059F0598F481E08887CE010E94D8
:1022E0002210CD82DE82EF82BE0187E895E0DF9189
:1022F000CF91FF90EF90DF90CF900C94FB0EDF9189
:10230000CF91FF90EF90DF90CF900895CF92DF9222
:10231000FF920F931F93CF93DF938C01FFB6F89436
:102320000E94970E009769F1EC01229751F18D817F
:102330009E81AF810197A1098D839E83AF83680140
:1023400082E0C80ED11C8D819E81AF81892B8A2BA2
:10235000C1F4C8010E94FD0F8C8180FF1CC08D7FDD
:102360008C83E881F9810190F081E02DB801CE01E4
:102370000995C8010E94970E009719F0EC01229769
:1023800011F7FFBEC801DF91CF911F910F91FF9010
:10239000DF90CF900895BE016E5F7F4FC6010E940F
:1023A000DD0EE7CF08958EBD00000DB407FEFDCF12
:1023B0008EB5089580E590E00E946C050E94150A94
:1023C00080E00E94D3110C94110ACF93DF93D82F91
:1023D000C62F80E590E00E946C050E94150A8D2FA3
:1023E0000E94D3118C2F0E94D311DF91CF910C94B6
:1023F000110ACF93C82F80E590E00E946C050E94DF
:10240000150A8C2F0E94D311C82F0E94110A8C2FFD
:10241000CF91089586E30E94F9118DE30E94F9118E
:102420008AE30C94F911CF93DF93D82FC62F80E560
:1024300090E00E946C050E94150A8D2F8C2B0E9443
:10244000D31180E00E94D311C82F0E94110A8C2F53
:10245000DF91CF9108950F931F93CF93DF93D82FE0
:10246000C62F62E00E94DE071FEF1C0F1E3F20F404
:1024700061E08C2F0E947E078D2F0E945507082F48
:1024800060E08D2F0E94DE071E3F20F460E08C2F5D
:102490000E947E07802FDF91CF911F910F910895A9
:1024A000CF93DF93EC01888191E09093B504809302
:1024B000D7041092B6041092D80460E08BE895E03F
:1024C0000E9416090E944C0461E088810E947105F7
:1024D00010925D0480935C048BE895E00E94CF0825
:1024E000DF91CF910895CF93DF93EC010E945012BA
:1024F000682F6068CE010E94D009888191E0909396
:10250000B5048093D7041092B6041092D80481E0E9
:1025100090E00E94450960E08BE895E00E94160972
:1025200060E08BE895E00E94160960E08BE895E09A
:102530000E9416090E944C04CE010E945012682F7E
:102540006F77CE01DF91CF910C94D0090F931F9339
:10255000CF93DF93EC018B010E942210CE010E94E9
:102560006C0DB80183E0660F771F8A95E1F7635918
:10257000784F48E050E0CE0108960E94184B8885BD
:10258000882371F0188A198A67E875E0CE010E94E5
:10259000D60FCE01DF91CF911F910F910C94630D57
:1025A000DF91CF911F910F9108950F931F93CF93B8
:1025B000DF9300D01F92CDB7DEB78B0143E050E030
:1025C000BC01CE0101960E94184B9A818B81298112
:1025D000F8012083918382830F900F900F90DF91F9
:1025E000CF911F910F910895EF92FF920F931F9338
:1025F000CF93DF938C01DC015796CD91DC917E0166
:10260000BBE0EB0EF11C9E819F5F9E83F801328D33
:10261000818D20E0611120E44BE04B8740E44E8740
:1026200042E24D878F73822B8D8B9C873E8BBE0140
:102630006E5E7F4FD8015796ED91FC9182A593A5D0
:102640000E94D512BE01615F7F4FD8015796ED9170
:10265000FC9182A593A50E94D5128D858F7D8D87D3
:10266000C701DF91CF911F910F91FF90EF900895D7
:102670001F93CF93DF93EC01162F0E94970D12301A
:1026800099F460E0CE010E94F412AF89B88DED910B
:10269000FC9111970680F781E02DBC01CD010995D1
:1026A0008A8D8F5F8A8F16C0153091F461E0CE015C
:1026B0000E94F412AF89B88DED91FC9111970680BC
:1026C000F781E02DBC01CD01DF91CF911F910994DD
:1026D000163031F3DF91CF911F9108951F93CF935F
:1026E000DF93EC011FB7F89498898885981760F4F8
:1026F000CE010E94D60F1FBF8823C1F0CE01DF910B
:10270000CF911F910C94630D188A9985992381F3B9
:1027100089898F5F898B891758F348E050E06DE60F
:1027200077E0CE0108960E94184B1FBFCE01DF91C3
:10273000CF911F910C946C0D9C01CB0144E050E0B3
:10274000B9010E94DE4E81E00895CF93DF931F927E
:10275000CDB7DEB7698341E050E0BC01CE01019600
:102760000E94DE4E81E00F90DF91CF910895CF93CC
:10277000C62F0E94EE0D8F3F59F020914A063091EE
:102780004B066C2F820F932F911DCF910C94A513A4
:1027900080E0CF9108950F931F93CF93DF93EC01C7
:1027A0008C01060F171F60E0CE010E94A513219631
:1027B000C017D107C1F781E0DF91CF911F910F9131
:1027C00008950F931F93CF938C01862FC42F0E94DF
:1027D000F50D8F3F61F0F801208131816C2F820F60
:1027E000932F911DCF911F910F910C94A51380E011
:1027F000CF911F910F9108950F931F93CF938C0149
:10280000862FC42F0E94E70D8F3F61F0F8012081D1
:1028100031816C2F820F932F911DCF911F910F91BA
:102820000C94A51380E0CF911F910F9108950F9301
:102830001F93CF938C01862FC42F4AE065EB77E07E
:102840000E94D10D8F3F61F0F801208131816C2F02
:10285000820F932F911DCF911F910F910C94A5136F
:1028600080E0CF911F910F910895CF93DF93EC01FA
:102870006AE070E0888199810E94CB1347E065E0AF
:10288000CE010E94171447E066E0CE010E941714A3
:1028900040E061E0CE010E941714882399F040E0E7
:1028A00062E0CE010E941714882361F040E063E0EB
:1028B000CE010E941714882329F040E064E0CE0185
:1028C0000E94171440E067E0CE010E94171488238D
:1028D00029F04AE068E0CE010E94171440E069E068
:1028E000CE010E941714882339F048EC6AE0CE012B
:1028F000DF91CF910C941714DF91CF9108950F932E
:102900001F93CF93DF9300D0CDB7DEB78C0168E281
:1029100070E0FC01868597850E94CB13F8018685BF
:1029200097859A838983CE0101960E9435140F9072
:102930000F90DF91CF911F910F9108950F931F93E7
:10294000CF93DF9300D0CDB7DEB78C016FE070E09E
:10295000FC01868197810E94CB13F80186819781C3
:102960009A838983CE0101960E9435140F900F90AF
:10297000DF91CF911F910F910895CF93DF931F9215
:10298000CDB7DEB7198241E050E0BC01CE0101961F
:102990000E94CE4E89810F90DF91CF910895CF9301
:1029A000DF93EC0188E10E94EE0D8F3F59F0288102
:1029B0003981820F932F911D0E94BD148170DF9188
:1029C000CF91089580E0FBCFCF93DF938E960E9446
:1029D000CF14811113C08DE295E00E94910DD0E0DB
:1029E000C0E060E0CE010E94A5132196C430D1055D
:1029F000C1F7F0E0E0E0DF91CF910994DF91CF9152
:102A00000895FC0180819181860F911D0C94BD1465
:102A1000CF93DF93EC01862F4AE065EB77E00E94CD
:102A2000D10D8F3F31F0682FCE01DF91CF910C9403
:102A3000011580E0DF91CF9108950F931F93CF93FD
:102A40008C0169E00E940815C82F6AE0C8010E9445
:102A500008152C2F30E0322F2227820F932F911D43
:102A6000CF911F910F9108950F931F93CF938C01D6
:102A700067E00E940815C82F68E0C8010E94081589
:102A80002C2F30E0322F2227820F932F911DCF91D0
:102A90001F910F9108958F929F92AF92BF92CF9204
:102AA000DF92EF92FF92CF93DF93EC0161E00E94FF
:102AB0000815C82E62E0CE010E940815D12CF12C19
:102AC000E12CFC2CEE24DD24CC2490E0B0E0A0E04E
:102AD000DC019927882746015701880E991EAA1EF6
:102AE000BB1E63E0CE010E94081590E0B0E0A0E0BC
:102AF000CC24D82EE92EFA2EC80CD91CEA1CFB1CBB
:102B000064E0CE010E940815A7019601280F311D2F
:102B1000411D511DCA01B901DF91CF91FF90EF9086
:102B2000DF90CF90BF90AF909F908F9008950F93BC
:102B30001F93CF93DF938C01862FD42FC22F0E9437
:102B4000F50D8F3F99F0682FC8010E9401152FE005
:102B500030E00D2E01C0220F0A94EAF7822390E0A4
:102B600002C095958795DA95E2F7C82F8C2FDF91F3
:102B7000CF911F910F9108950F931F93CF93DF93E0
:102B80008C01862FC42FD22F0E94E70D8F3FB1F00A
:102B9000682FC8010E9401154C2F0D2E01C0440F53
:102BA0000A94EAF7842390E002C095958795DA9518
:102BB000E2F7DF91CF911F910F91089580E0F9CF57
:102BC000CF93DF9300D0CDB7DEB7FC018685978524
:102BD0009A83898320E041E068E0CE0101960E945B
:102BE000BC1591E0811101C090E0892F0F900F90EA
:102BF000DF91CF910895CF93DF9300D0CDB7DEB7AB
:102C0000FC01818992899A83898388E00E94080E59
:102C10008F3F59F0682FCE0101960E9401158170F7
:102C20000F900F90DF91CF91089580E0F9CFCF936F
:102C3000DF9300D0CDB7DEB7FC01868597859A83F8
:102C400089834AE065EB77E088E00E94D10D8F3FF1
:102C500059F0682FCE0101960E94011581700F90E6
:102C60000F90DF91CF91089580E0F9CFCF93DF935C
:102C700000D0CDB7DEB7FC01868197819A83898326
:102C80004AE065EB77E088E00E94D10D8F3F59F074
:102C9000682FCE0101960E94011581700F900F9050
:102CA000DF91CF91089580E0F9CF0F931F93CF93D9
:102CB0008C01862FC42F0E94F50D8F3F39F0682FAD
:102CC000C801CF911F910F910C9401158C2FCF91BA
:102CD0001F910F910895CF93DF93CDB7DEB7609723
:102CE0000FB6F894DEBF0FBECDBFDB012D913C9136
:102CF000232B61F4833031F020E030E0A9018630ED
:102D000009F048C02FEF3FEFA90144C09B01833079
:102D100009F44BC030F440E066E0813049F080E0D7
:102D20000CC0843009F444C04FEF69E08630B9F735
:102D3000C9010E9455168F3F29F390E1E4E1F1E0CB
:102D4000DE01119601900D929A95E1F7282F30E05F
:102D500095E0359527959A95E1F7220F331FE1E02D
:102D6000F0E0EC0FFD1F2E0F3F1FD901ED91FC91FC
:102D70008F71282F30E0A4E6B0E00E94014F9B0144
:102D8000AC01DF010E94F64E2AE030E040E050E066
:102D90000E94D850CA01B90160960FB6F894DEBF00
:102DA0000FBECDBFDF91CF9108954FEF67E0C0CF49
:102DB00040E068E0BDCF8F929F92AF92BF92CF92DA
:102DC000DF92EF92FF920F931F93CF93DF93EC016B
:102DD000D62E49015A01780185E0C82EF70180817D
:102DE00091819A878987DD2009F444C0CA94CC2058
:102DF00009F440C0CE010E9422106885D61659F011
:102E0000E881F9810680F781E02D950184014D2D3F
:102E1000CE010995D88681149104A104B10481F4EE
:102E2000E885E150D12CE63020F4F0E0EE54FE4F7E
:102E3000D080B7018D2D0E946B164B015C01CECF67
:102E4000FFEF8F169F06AF06BF06A1F08D829E8210
:102E5000AF82BE0187E895E0DF91CF911F910F917E
:102E6000FF90EF90DF90CF90BF90AF909F908F90AA
:102E70000C94FB0EDF91CF911F910F91FF90EF907B
:102E8000DF90CF90BF90AF909F908F9008958F92DA
:102E90009F92AF92BF92EF92FF920F931F93CF93A7
:102EA000DF9300D0CDB7DEB7FB0102967C018081B5
:102EB0008B3008F48BE08B50853060F02785822FB3
:102EC00090E0982F88272089280F392F311D211550
:102ED000310511F42FEF3FEF14851A8219822F3F2D
:102EE000320709F446C0A9014F715527812C912C56
:102EF000540183944115510579F081E072E0872EE9
:102F0000912CA12CB12C8417150630F4880C991C37
:102F1000AA1CBB1C8F5FF7CF85E0369527958A9555
:102F2000E1F7A4E6B0E00E94014F9B01AC01C501AE
:102F3000B4010E94B4502AE030E040E050E00E942A
:102F4000D85063E0111101C066E08E010F5F1F4F82
:102F5000C7010E94DB1681E00F900F90DF91CF91A7
:102F60001F910F91FF90EF90BF90AF909F908F9027
:102F700008952FEF3FEFA901E4CFEF92FF920F9357
:102F80001F93CF93DF9300D0CDB7DEB77C01862FA0
:102F9000F701628B61E00E94DE07F7018481877F81
:102FA00084830785108986E50E94080E8F3FC9F447
:102FB0001A82198266E08E010F5F1F4F2FEF3FEFDD
:102FC000A901C7010E94DB16F70184818460848314
:102FD0000F900F90DF91CF911F910F91FF90EF9085
:102FE0000895800F912F911D0E94BD1480FFE0CFA6
:102FF0001A82198263E0DFCF8F929F92AF92BF92C5
:10300000CF92DF92FF920F931F93CF93DF9300D065
:10301000CDB7DEB76C018B01F42E20E040E06AE012
:10302000C8010E949715823009F45DC0833009F40D
:1030300066C0813049F4F60180858330D9F090F480
:1030400022E040E08130D9F00F900F90DF91CF91D6
:103050001F910F91FF90DF90CF90BF90AF909F9006
:103060008F900895843049F021E044E0863061F784
:103070006BE006C024E040E0FBCF25E044E06CE0DC
:10308000C8010E949715F82E8823F1F2B8010E941A
:103090006B164B015C01F60180858F1539F0A50197
:1030A00094016F2DC6010E94DB16CECFF3E0FF1610
:1030B00061F186E0F812F3CFEFEF8E169E06AE06B2
:1030C000BE0669F38AE00E94F50D8F3F41F3F801D7
:1030D00020813181820F932F911D0E94BD1486FBA8
:1030E000882780F929C01A821982F0FC0CC066E09A
:1030F0008E010F5F1F4F2FEF3FEFA901D3CF1A8231
:103100001982F0FCF4CF63E0F3CFFFEF8F169F0638
:10311000AF06BF0621F28AE00E94F50D8F3F09F449
:10312000BECFF80120813181820F932F911D0E9423
:10313000BD14881F8827881F882309F4B0CFC601D3
:103140000E949E0E611571058105910509F47CCFE1
:1031500086169706A806B90608F0A1CF75CFFF928C
:103160000F931F93CF93DF93EC01E885E150F12C8F
:10317000E63020F4F0E0EE54FE4FF0808E01075F61
:103180001F4FB8018F2D0E946B169B01AC016F2D54
:10319000CE010E94DB16DF91CF911F910F91FF901E
:1031A00008950F931F93CF938C01862FC42F0E94F5
:1031B000EE0D8F3F39F0682FC801CF911F910F910D
:1031C0000C9401158C2FCF911F910F910895EF92C0
:1031D000FF920F931F93CF93DF93EC018B0140E09D
:1031E0006CE0C8010E94D118F82E40E06BE0C801E5
:1031F0000E94D118E82E40E06AE0C8010E94D11870
:103200008883E982FA82CE01DF91CF911F910F91DD
:10321000FF90EF9008950F931F93CF938C0140E0A0
:103220006FE10E94D118C82F40E060E2C8010E94FF
:10323000D1182C2F30E0322F2227820F932F911D8F
:10324000CF911F910F910895EF92FF920F931F93CB
:10325000CF93DF937C01D62FC42F122F0E9401152C
:103260002C2F01C0220F0A95EAF7682F62276123ED
:103270006827F701808191818D0F911DDF91CF919A
:103280001F910F91FF90EF900C94A5130F931F9334
:10329000CF93DF93EC01862F042F122F0E94F50DA0
:1032A0008F3F89F02FE030E0002E01C0220F0A94FA
:1032B000EAF7412F682FCE010E942419DF91CF91A8
:1032C0001F910F91089580E0F9CF262F44E06CE024
:1032D0000C944619262F40E06CE00C944619262FDA
:1032E00044E06BE00C944619262F40E06BE00C9410
:1032F00046190F931F93CF93DF9300D0CDB7DEB75E
:103300008C01FC01808191819A8389836BE070E05C
:103310000E94CB1342E364E0CE0101960E94E113C8
:1033200044E665E0CE0101960E94E1134FEF67E0AD
:10333000CE0101960E94E1134FEF69E0CE010196A4
:103340000E94E11321E040E06AE0CE0101960E9474
:103350004619F801808191810B969A8389836BE0ED
:1033600070E00E94CB1342E364E0CE0101960E941C
:10337000E11344E665E0CE0101960E94E1134FEFB0
:1033800067E0CE0101960E94E1134FEF69E0CE01A4
:1033900001960E94E11321E040E06AE0CE0101962F
:1033A0000E9446198AE00E94F50D8F3F61F0098165
:1033B0001A81080F111DC8010E94BD14682F606298
:1033C000C8010E94A5130F900F90DF91CF911F911C
:1033D0000F9108950F931F93CF93DF9300D0CDB734
:1033E000DEB78C010E947919F801808191819A835E
:1033F000898363E0CE0101960E94741961E0CE01D9
:1034000001960E946F1963E0CE0101960E946A192D
:1034100063E0CE0101960E946519F80180819181D7
:103420000B969A83898363E0CE0101960E947419FA
:1034300061E0CE0101960E946F1963E0CE01019612
:103440000E946A1963E0CE0101960E9465190F90EF
:103450000F90DF91CF911F910F9108950F931F93BC
:10346000CF93DF9300D0CDB7DEB78C010E947919DE
:10347000F801808191819A83898364E0CE0101966D
:103480000E94741966E0CE0101960E946F1966E0F1
:10349000CE0101960E946A1966E0CE0101960E9453
:1034A0006519F801808191810B969A83898364E084
:1034B000CE0101960E94741966E0CE0101960E9429
:1034C0006F1966E0CE0101960E946A1966E0CE018E
:1034D00001960E9465190F900F90DF91CF911F9177
:1034E0000F9108950F931F93CF93DF9300D0CDB723
:1034F000DEB78C0168E071E0FC01818992890E944D
:10350000CB13F801818992899A83898364E070E002
:103510000E94CB1380E30E94080E8F3F41F0298167
:103520003A8166E0820F932F911D0E94A51387E5D3
:103530000E94080E8F3F41F000E02FE144E0682F29
:10354000CE0101960E94241987E50E94080E8F3F44
:1035500041F005E020EE41E0682FCE0101960E9487
:1035600024190F900F90DF91CF911F910F91089523
:103570000F931F93CF93DF9300D0CDB7DEB78C01AD
:1035800067E370E0FC01868597850E94CB13F80104
:10359000868597859A83898365E070E00E94CB13C6
:1035A00080E20E94E70D8F3F41F006E020EC41E011
:1035B000682FCE0101960E94241980E20E94E70D37
:1035C0008F3F41F004E020E342E0682FCE010196F6
:1035D0000E94241988E00E94E70D8F3F41F000E02F
:1035E00021E040E0682FCE0101960E94241940E0BE
:1035F00061E2CE0101960E94FC1344E662E2CE0134
:1036000001960E94FC1346E060E3CE0101960E9401
:10361000FC130F900F90DF91CF911F910F910895A0
:10362000CF93DF93EC011A82198218821B82411119
:103630000AC0FB0164817581665F7F4F21F044E021
:1036400050E00E94CE4ECE01DF91CF910895CF93EE
:10365000DF9300D000D0CDB7DEB740E0BC01CE0193
:1036600001960E94101BCE0101960E942F0E81959B
:103670000F900F900F900F90DF91CF910895EF92E0
:10368000FF920F931F93CF93DF9300D000D0CDB75D
:10369000DEB78C017B0140E0BC01CE0101960E94A7
:1036A000101BB701CE0101960E94690E882379F0A4
:1036B0001B821A8219821C82F80164817581665FFF
:1036C0007F4F44E050E0CE0101960E94DE4E81E043
:1036D0000F900F900F900F90DF91CF911F910F914E
:1036E000FF90EF90089502960C943F1BCF92DF92CB
:1036F000EF92FF920F931F93CF93DF936C017B01A7
:103700008A01EC012296CE010E943F1BB801CE0136
:103710000E943F1BCE010E94271B8F3F59F1811150
:103720001FC0F601868197810A96B7010E949C13FB
:10373000CE010E94271B8F3FC9F0811114C0F601F2
:10374000868197810A96B8010E949C1381E0DF91DF
:10375000CF911F910F91FF90EF90DF90CF90089540
:1037600090E080E0E2CF90E080E0EDCFB701CE01C5
:103770000E943F1B80E0EBCFEF92FF920F931F93CD
:10378000CF93DF938C01EB017C0182E0E80EF11C0A
:10379000C7010E943F1BC7010E94271B8F3FA1F05A
:1037A00081110FC0F801868197810A96BE010E949F
:1037B0009C1381E0DF91CF911F910F91FF90EF90CB
:1037C000089590E080E0F2CF80E0F4CFEF92FF9296
:1037D0000F931F93CF93DF9300D000D000D01F92A0
:1037E000CDB7DEB78C017B01BC016E5F7F4F40E03F
:1037F000CE0101960E94101BB701CE0101960E94D6
:10380000690E30E020E0882329F0F8012681378115
:10381000225F3F4F3A83298345E55AE05D834C831D
:103820008DED9DE09F838E833A81542F6D81782F9B
:1038300041E08F8190E027960FB6F894DEBF0FBE6F
:10384000CDBFDF91CF911F910F91FF90EF90089521
:10385000CF93DF93EC016E5F7F4F0E94101BCE0170
:10386000DF91CF9108950F931F93CF93DF9300D0F3
:1038700000D0CDB7DEB78B01BC016E5F7F4F40E05B
:10388000CE0101960E94101BBE016F5F7F4FC801E1
:103890000E94690E0F900F900F900F90DF91CF91C3
:1038A0001F910F910895CF93DF93EC01CB011A8202
:1038B000198218821B82642F04960E94ED090097DA
:1038C00031F044E050E0BC01CE010E94CE4ECE016A
:1038D000DF91CF910895EF92FF921F93CF93DF93E3
:1038E00000D000D0CDB7DEB77C0110E0412FB7018A
:1038F000CE0101960E94531CCE0101960E942F0E0C
:10390000882321F01F5F163089F71FEF812F0F905A
:103910000F900F900F90DF91CF911F91FF90EF903C
:103920000895AF92BF92CF92DF92EF92FF921F93D2
:10393000CF93DF9300D000D0CDB7DEB77C016B0111
:1039400010E05C0184E0A80EB11C412FB701CE014C
:1039500001960E94531CB601CE0101960E94690E89
:10396000882379F01B821A8219821C82612FC5017B
:103970000E94ED0944E050E0BC01CE0101960E9496
:10398000DE4E1F5F163009F781E00F900F900F9009
:103990000F90DF91CF911F91FF90EF90DF90CF902C
:1039A000BF90AF9008950A960C94911CCF92DF922D
:1039B000EF92FF920F931F93CF93DF938C017B01C4
:1039C0006A01EC012A96CE010E94911CB601CE013B
:1039D0000E94911CCE010E946B1C8F3F19F1025F67
:1039E0001F4F682FC8010E94ED09B7010E949C1368
:1039F000CE010E946B1C8F3F89F0682FC8010E9486
:103A0000ED09B6010E949C1381E0DF91CF911F91D7
:103A10000F91FF90EF90DF90CF900895B701CE0106
:103A20000E94911C80E0F1CFEF92FF920F931F93C1
:103A3000CF93DF938C01EB017C018AE0E80EF11C4F
:103A4000C7010E94911CC7010E946B1C8F3F81F02F
:103A5000682FC8010E960E94ED09BE010E949C13BA
:103A600081E0DF91CF911F910F91FF90EF9008952A
:103A700080E0F7CFAF92BF92CF92DF92EF92FF92AA
:103A80001F93CF93DF9300D000D000D01F92CDB70B
:103A9000DEB77C015B016C018AE0C80ED11C10E02E
:103AA000412FB601CE0101960E94531CB501CE01F3
:103AB00001960E94690E882341F1612FC7010E967D
:103AC0000E94ED0904969A8389836FE47AE07D83EE
:103AD0006C8349E45AE05F834E83282F3A81562F46
:103AE0006D81742F41E08F8190E027960FB6F89496
:103AF000DEBF0FBECDBFDF91CF911F91FF90EF9042
:103B0000DF90CF90BF90AF9008951F5F163041F6C1
:103B100090E080E0D8CFCF93DF93EC01665F7F4FDA
:103B20000E94531CCE01DF91CF910895CF92DF9276
:103B3000EF92FF921F93CF93DF9300D000D0CDB7C9
:103B4000DEB76B010A967C0110E0412FB701CE0170
:103B500001960E94531CBE016F5F7F4FC6010E94F9
:103B6000690E811103C01F5F163079F70F900F9017
:103B70000F900F90DF91CF911F91FF90EF90DF900A
:103B8000CF900895CF93DF93EC01CB011A82198275
:103B900018821B82642F04960E94FC09009731F062
:103BA00044E050E0BC01CE010E94CE4ECE01DF9138
:103BB000CF910895EF92FF921F93CF93DF9300D0A0
:103BC00000D0CDB7DEB77C0110E0412FB701CE01A8
:103BD00001960E94C21DCE0101960E942F0E8823DD
:103BE00021F01F5F1A3089F71FEF812F0F900F9080
:103BF0000F900F90DF91CF911F91FF90EF9008955C
:103C0000AF92BF92CF92DF92EF92FF921F93CF932A
:103C1000DF9300D000D0CDB7DEB77C016B0110E0A0
:103C20005C0184E0A80EB11C412FB701CE010196C2
:103C30000E94C21DB601CE0101960E94690E882322
:103C400079F01B821A8219821C82612FC5010E94A1
:103C5000FC0944E050E0BC01CE0101960E94DE4E1A
:103C60001F5F1A3009F781E00F900F900F900F90AF
:103C7000DF91CF911F91FF90EF90DF90CF90BF9099
:103C8000AF9008950A960C94001ECF92DF92EF92A7
:103C9000FF920F931F93CF93DF938C017B016A01F7
:103CA000EC012A96CE010E94001EB601CE010E94B0
:103CB000001ECE010E94DA1D8F3F19F1025F1F4FD7
:103CC000682FC8010E94FC09B7010E949C13CE0115
:103CD0000E94DA1D8F3F89F0682FC8010E94FC09FD
:103CE000B6010E949C1381E0DF91CF911F910F914B
:103CF000FF90EF90DF90CF900895B701CE010E9422
:103D0000001E80E0F1CFEF92FF920F931F93CF93AD
:103D1000DF938C01EB017C018AE0E80EF11CC70106
:103D20000E94001EC7010E94DA1D8F3F81F0682F9C
:103D3000C8010E960E94FC09BE010E949C1381E0FE
:103D4000DF91CF911F910F91FF90EF90089580E048
:103D5000F7CFCF93DF93EC01665F7F4F0E94C21DC8
:103D6000CE01DF91CF910895CF92DF92EF92FF9233
:103D70001F93CF93DF9300D000D0CDB7DEB76B0198
:103D80000A967C0110E0412FB701CE0101960E94F6
:103D9000C21DBE016F5F7F4FC6010E94690E811177
:103DA00003C01F5F1A3079F70F900F900F900F909C
:103DB000DF91CF911F91FF90EF90DF90CF9008950A
:103DC000CF92DF92EF92FF921F93CF93DF9300D0B9
:103DD00000D0CDB7DEB77C016B0110E0412FB701F9
:103DE000CE0101960E94C21DB601CE0101960E942D
:103DF000690E882391F0612FC70104960E94FC0987
:103E000004960F900F900F900F90DF91CF911F911C
:103E1000FF90EF90DF90CF9008951F5F1A30F1F67A
:103E200090E080E0EECFCF93DF9300D000D000D0C1
:103E30001F92CDB7DEB70A960E94E01E65E57AE0D4
:103E40007D836C834DED5DE05F834E839C01562F37
:103E50006D81742F41E08F8190E027960FB6F89422
:103E6000DEBF0FBECDBFDF91CF910895CF93DF931B
:103E7000EC01CB011A82198218821B82642F0496EE
:103E80000E94190A009731F044E050E0BC01CE01D5
:103E90000E94CE4ECE01DF91CF910895CF92DF9256
:103EA000EF92FF921F93CF93DF9300D000D0CDB756
:103EB000DEB77C016B0110E0412FB701CE01019606
:103EC0000E94361FB601CE0101960E94690E88231A
:103ED00091F0612FC70104960E94190A04960F9071
:103EE0000F900F900F90DF91CF911F91FF90EF9067
:103EF000DF90CF9008951F5F1A30F1F690E080E0D8
:103F0000EECFCF93DF9300D000D000D01F92CDB77B
:103F1000DEB70D960E944E1F68E27AE07D836C83C7
:103F20004AEF5DE05F834E839C01562F6D81742FB5
:103F300046E18F8190E027960FB6F894DEBF0FBE62
:103F4000CDBFDF91CF910895DF92EF92FF920F9353
:103F50001F93CF93DF9300D000D000D0CDB7DEB752
:103F60007C01FB0102858481898385818A83868126
:103F70008B83802F8F738C83D3841485BE016F5FF6
:103F80007F4FC7010D960E944E1F009709F46BC02A
:103F900006FD0B969E838D83F70182858330B9F0F1
:103FA00070F420E040E08130B9F042E364E0CE01FB
:103FB00005960E945516181708F041C019C08430A4
:103FC00049F020E044E0863081F763E006C020E05D
:103FD00040E0FBCF20E044E062E0CE0105960E9485
:103FE0009715823021F198F48823F9F28130E1F0BD
:103FF00081E026960FB6F894DEBF0FBECDBFDF91ED
:10400000CF911F910F91FF90EF90DF900895843032
:10401000F9F030F1853061F742E364E0CE010596B6
:104020000E945516181758F044E665E0C0CF42E3E9
:1040300064E0CE0105960E9455161817C8F64D2D5E
:10404000BE016B5F7F4FC70102960E94FC17D0CF65
:1040500042E364E0CE0105960E945516181740F21F
:1040600044E665E0E6CF80E0C4CFEF92FF920F9385
:104070001F93CF93DF9300D000D000D0CDB7DEB731
:104080008C01FB01E2848481898385818A83868116
:104090008B838E2D8F738C83F384BE016F5F7F4F74
:1040A000C8010D960E944E1F009791F1E6FE23C0B5
:1040B0000B969E838D83F8018389F8121EC08AE0D7
:1040C0000E94F50D8F3F49F02D813E81820F932F85
:1040D000911D0E94BD1485FD10C081E026960FB68B
:1040E000F894DEBF0FBECDBFDF91CF911F910F912E
:1040F000FF90EF9008959E838D83F801F38A4F2DF2
:10410000BE016B5F7F4FC80102960E94FC17E5CF8E
:1041100080E0E4CFCF93DF93EC01635F7F4F0E9499
:10412000361FCE01DF91CF910895CF92DF92EF92AB
:10413000FF921F93CF93DF9300D000D0CDB7DEB7AF
:104140006B010D967C0110E0412FB701CE01019665
:104150000E94361FBE016F5F7F4FC6010E94690E2D
:10416000811103C01F5F1A3079F70F900F900F90E5
:104170000F90DF91CF911F91FF90EF90DF90CF9044
:104180000895EF92FF921F93CF93DF9300D000D05A
:10419000CDB7DEB77C0110E0412FB701CE0101960B
:1041A0000E94361FCE0101960E942F0E882321F017
:1041B0001F5F1A3089F71FEF812F0F900F900F901C
:1041C0000F90DF91CF911F91FF90EF900895AF92E4
:1041D000BF92CF92DF92EF92FF921F93CF93DF9324
:1041E00000D000D0CDB7DEB77C016B0110E05C01E0
:1041F00084E0A80EB11C412FB701CE0101960E94A8
:10420000361FB601CE0101960E94690E882379F00F
:104210001B821A8219821C82612FC5010E94190A11
:1042200044E050E0BC01CE0101960E94DE4E1F5FCB
:104230001A3009F781E00F900F900F900F90DF91E7
:10424000CF911F91FF90EF90DF90CF90BF90AF90F4
:1042500008950D960C94E7208F929F92AF92BF9293
:10426000CF92DF92EF92FF920F931F93CF93DF9342
:1042700000D0CDB7DEB77C016B015A018C01035F22
:104280001F4FC8010E94E720B501C8010E94E72026
:10429000C8010E94C120982E8FEF981609F450C0D3
:1042A000E1E1EE0EF11C692DC7010E94190AB60169
:1042B0000E949C13C8010E94C120882EFFEF8F1717
:1042C000D9F1682FC7010E94190AB5010E949C13F9
:1042D000F601838180FF24C0692DC8010E94770DFB
:1042E0009A838983CE0101960E942E1A682DC801F7
:1042F0000E94770D9A838983CE0101960E94EA1964
:1043000081E00F900F90DF91CF911F910F91FF905F
:10431000EF90DF90CF90BF90AF909F908F900895D7
:10432000682DC8010E94770D9A838983CE0101967A
:104330000E942E1A692DDBCFB601C8010E94E7202A
:1043400080E0DFCFCF92DF92FF920F931F93CF9346
:10435000DF9300D000D0CDB7DEB78C016B010E9497
:10436000E720C8010E94C120F82E8FEFF81609F44B
:1043700061C06F2DC80104960E94190AB6010E94FF
:104380009C136F2DC8010E94770D9C838B83CE01F7
:1043900003960E9479198B819C819A83898364E0BA
:1043A000CE0101960E94741961E0CE0101960E942F
:1043B0006F1963E0CE0101960E946A1966E0CE0192
:1043C00001960E9465198B819C810B969A83898343
:1043D00064E0CE0101960E94741961E0CE0101965D
:1043E0000E946F1963E0CE0101960E946A1966E08F
:1043F000CE0101960E9465198AE00E94F50D8F3F5B
:1044000061F009811A81080F111DC8010E94BD14B5
:10441000682F6F7DC8010E94A51381E00F900F9057
:104420000F900F90DF91CF911F910F91FF90DF9030
:10443000CF90089580E0F2CF0D960C94A221FB015D
:1044400001900020E9F73197AF01461B570BDC01C3
:10445000ED91FC910280F381E02D09948F929F925F
:10446000AF92BF92EF92FF920F931F93CF93DF9380
:10447000CDB7DEB7A1970FB6F894DEBF0FBECDBFA4
:104480007C01FA01CB0119A2223008F42AE08E0146
:104490000F5D1F4F822E912CB12CA12CBF01A501C5
:1044A00094010E94D850F901CA016A300CF5605D90
:1044B000D8016E938D01232B242B252B79F790E0C7
:1044C00080E0109721F0BD01C7010E941F22A19634
:1044D0000FB6F894DEBF0FBECDBFDF91CF911F9115
:1044E0000F91FF90EF90BF90AF909F908F900895A5
:1044F000695CDECFCF93C82F803128F460E389ED6B
:1045000094E00E9499064C2F50E070E060E020E1BA
:1045100089ED94E0CF910C942E220E947A2283E0C0
:1045200092E00C948C0D0F931F93CF93DF93D82FB1
:10453000C62F142F0E94E51160E88D2F0E941312E0
:10454000082F81E0C01771F0112389F04FEF410F60
:104550006C2F8D2F0E949322EFECF7E03197F1F74B
:1045600000C00000DF91CF911F910F91089583E665
:1045700097E00E948C0D8D2F0E947A2287E597E0AC
:104580000E948C0D8C2F0E947A228FE497E00E946B
:104590008C0D802F0E948D2280E0E4CFAB0170E073
:1045A00060E02AE00C942E22BC0189ED94E00E9488
:1045B000CE228BEE94E00C948C0DCF92DF92EF9292
:1045C000FF92CF93DF936B017C016DE289ED94E064
:1045D0000E949906EC0144275527BA014C195D0940
:1045E0006E097F092AE089ED94E00E942E228C0F4B
:1045F0009D1FDF91CF91FF90EF90DF90CF900895B6
:10460000AC01990F660B770B77FF08C0CB01BA019D
:104610000E94DD228EEE94E00C948C0D2AE089ED50
:1046200094E00E942E22F6CFAB01BC012AE089ED76
:1046300094E00E942E2288EE94E00C948C0DEF9270
:10464000FF920F931F93CF93DF93EC0188810E9419
:104650007A2286E192E00E948C0D89810E947A2262
:1046600084E192E00E948C0D8A810E947A2282E18C
:1046700092E00E948C0D8B810E947A2280E192E070
:104680000E948C0D8C810E947A228D810E947A2258
:104690008E810E947A228EE092E00E948C0D8F81A2
:1046A0000E947A2288850E947A2289850E947A2235
:1046B0008CE092E00E948C0D088109502A967E01C0
:1046C00010E0C7018C1B9D0B8017910754F4F70174
:1046D00081917F010E947A2286E092E00E948C0DF7
:1046E000F0CF88E092E00E948C0D2FB7F894609193
:1046F0002D0470912E0480912F04909130042FBFCF
:10470000DF91CF911F910F91FF90EF900C941423A4
:10471000482F50E070E060E02AE089ED94E00C94CE
:104720002E22CF92DF92EF92FF92CF938FE10E94E1
:104730001A08C5E0C12CD12C76018FE097E20197D1
:10474000F1F700C000008FE10E941A08092E000C4A
:10475000AA0BBB0BC80ED91EEA1EFB1EC15069F77F
:10476000C701B60125E030E040E050E00E94D8509B
:1047700069017A018FE096E00E948C0D8FE10E9422
:10478000882389E096E00E948C0DC701B6010E9443
:104790001423A8EEB0E8A70196010E94F64E6B0123
:1047A0007C018AE0F694E794D794C7948A95D1F770
:1047B00084EF95E00E948C0DC701B6010E9414237E
:1047C000C701B601CF91FF90EF90DF90CF90089591
:1047D000CF92DF92EF92FF92CF93DF93EC01CB0168
:1047E00024E630E040E02D833E834F83BE010E94EB
:1047F000FB0E0E9491236B018885998543E067E059
:1048000045960E9499098885998568E172E04596E8
:104810000E94D6058885998543E067E045960E9409
:10482000990988859985B6014596DF91CF91FF90CA
:10483000EF90DF90CF900C94CE220E94882385EEDB
:1048400094E00C948C0D0F931F93CF93DF9300D0C3
:10485000CDB7DEB78C0186EC95E00E948C0DF80197
:10486000868597859A83898365E0CE0101960E94AB
:1048700008150E941D248DEA95E00E948C0DF80118
:10488000868597859A83898366E0CE0101960E948A
:1048900008150E941D2484E995E00E948C0DF80102
:1048A000868597859A838983CE0101960E944B1550
:1048B00097FF39C00E94DD228FE595E00E948C0DA4
:1048C0008BE795E00E948C0DF801868597859A8389
:1048D0008983CE0101960E9434150E94D42282E67B
:1048E00095E00E948C0DF801868597859A838983CF
:1048F000CE0101960E941D150E94D422F8018685E2
:1049000097859A838983CE0101960E941D15F8012F
:10491000ED57FF4F918380830F900F90DF91CF91E0
:104920001F910F9108952AE0AB01BC0189ED94E03D
:104930000E942E22C1CFCF93DF93EC0182EB94E053
:104940000E948C0DAE96CE010E940B190E94D422BB
:1049500089E994E00E948C0D40E061E2CE010E9462
:10496000D1180E941D2443E06EE0CE010E94D118B0
:10497000C82F80E894E00E948C0D8C2F0E941D248B
:10498000C0939907C1110AC088E08093AD0760E029
:1049900082EA97E0DF91CF910C944A091092AD071B
:1049A000F6CFCF92DF92EF92FF926B017C016BEF1B
:1049B00071E080E1C816D104E104F10488F164EFEC
:1049C00071E08FEFC816D104E104F10449F140F120
:1049D0006EEE71E0C11480E1D806E104F10400F14B
:1049E00069EE71E0C114D10481E0E806F104C0F081
:1049F00065EE71E0C114D10480E1E806F10480F0B5
:104A000062EE71E0C114D104E10481E0F80640F0E7
:104A1000C114D104E10480E1F80630F460EE71E0E5
:104A200089ED94E00E94D60520E1B701A60189ED49
:104A300094E0FF90EF90DF90CF900C942E220C9496
:104A40001F220F931F93CF93DF938C01EB01FC0187
:104A5000808191810097E1F068817981611571050C
:104A6000A9F0428153812C813D814217530770F098
:104A70000E9445538C819D81F801958384831D821A
:104A80001C82DF91CF911F910F9108950E94C55113
:104A900088819981F801918380838A819B819383A6
:104AA00082838C819D8195838483198218821B82E5
:104AB0001A82E5CFCF93DF93EC018881998100972B
:104AC00011F00E94C551198218821D821C821B821E
:104AD0001A82DF91CF910895FC0180819181009726
:104AE00011F00C94C55108950C94C5510C94C55106
:104AF0000C94C5510C94C5510C94C5510C94C551DE
:104B00000C94C5510C94C5510C94C5510C94C551CD
:104B10000C94C5510C94C5510C94C5510C94C551BD
:104B20000C94C5510C94C5510C94C5510C94C551AD
:104B30000C94C5510C94C5510C94C5510C94C5519D
:104B40000C94C5510F931F93CF93DF93EC01888191
:104B50009981009759F02A813B812617370730F059
:104B600081E0DF91CF911F910F9108958B016F5FCD
:104B70007F4F0E944E52009759F0998388831B8380
:104B80000A832C813D81232B59F7FC011082E8CF49
:104B900080E0E7CFEF92FF920F931F93CF93DF93C5
:104BA000EC01FB01E080F180E114F10411F10481DA
:104BB000158101151105A9F08C819D81080F191F20
:104BC000B801CE010E94A225882399F0288139815D
:104BD0008C819D81B701820F931F0E9445531D83D5
:104BE0000C83CE01DF91CF911F910F91FF90EF9039
:104BF0000895CE010E945A25F4CFEF92FF920F93B1
:104C00001F93CF93DF93EC017B018A01BA010E94CD
:104C1000A22581110BC0CE010E945A25CE01DF9141
:104C2000CF911F910F91FF90EF9008951D830C83FA
:104C3000B701888199810E944553F0CFFB01019013
:104C40000020E9F73197AF01461B570B0C94FD2567
:104C5000EF92FF920F931F93CF93DF93CDB7DEB701
:104C6000A1970FB6F894DEBF0FBECDBF7C01CB017C
:104C7000BA01F70111821082138212821582148206
:104C80008E010F5F1F4F22E044E00E94FA4A009716
:104C900089F0BC01C7010E941E26A1960FB6F894A8
:104CA000DEBF0FBECDBFDF91CF911F910F91FF905F
:104CB000EF900895C7010E945A25EFCFCF93DF935D
:104CC000EC01FB018617970749F06081718161153E
:104CD000710541F0448155810E94FD25CE01DF918F
:104CE000CF9108950E945A25F9CFFC0111821082BC
:104CF0001382128215821482FB0101900020E9F7D1
:104D00003197AF01461B570B0C94FD25DF92EF92B4
:104D1000FF920F931F93CF93DF9300D000D000D06A
:104D2000CDB7DEB78C017B0169E873E00E94752680
:104D3000B701FF0C880B990B0E94B14D20E030E0C9
:104D400040E251E40E947D4FAB01BC01CE010196CF
:104D50000E942826BE016F5F7F4FC8010E94212557
:104D6000CE0101960E946C25D8011496ED90FC901E
:104D700066E473E0CE0101960E947526F8018481F5
:104D800095810097F9F0F1E0EF1AF1088E159F0573
:104D900008F47C01D801ED91FC911197EE0DFF1DF7
:104DA000D08010826D917C91CE01019661157105C4
:104DB00011F10E941E26F80180819181E80EF91EF2
:104DC000D701DC92BE016F5F7F4FC8010E94212591
:104DD000CE0101960E946C25C80126960FB6F89464
:104DE000DEBF0FBECDBFDF91CF911F910F91FF901E
:104DF000EF90DF9008950E945A25DDCFEF92FF9249
:104E00000F931F93CF93DF93CDB7DEB768970FB69D
:104E1000F894DEBF0FBECDBF8C017B016EE373E063
:104E20000E9475261C8A1B8A1E8A1D8A188E1F8A5C
:104E30004AE0BE016F5F7F4FC7010E94214BBE0158
:104E40006F5F7F4FCE0143960E941E26BE016D5EAE
:104E50007F4FC8010E942125CE0143960E946C25F8
:104E6000F7FC33C063E473E08AE0E816F10474F001
:104E700084E6E816F1041CF464E473E007C088EEED
:104E8000E81683E0F8069CF465E473E0CE01019631
:104E90000E947526B801CE0101960E94CA25BC0168
:104EA000C8010E945E26CE0101960E946C25C801B1
:104EB00068960FB6F894DEBF0FBECDBFDF91CF91DD
:104EC0001F910F91FF90EF90089587EFE8168FEFF5
:104ED000F80694F6D9CFAF92BF92CF92DF92EF92BD
:104EE000FF920F931F93CF93DF93EC017B018B8590
:104EF0008B7F8B878E01035F1F4F60EC8BE30E94DB
:104F0000131218160CF043C060E88FE30E941312CE
:104F1000D82E4CE1481708F465C080E590E00E9467
:104F20006C050E94150A8FEF0E94D311C02E580104
:104F30008A2D8C198D1538F480E00E94D311F5016B
:104F400081935F01F5CF0E94110A60E88FE30E9410
:104F50001312282F30E0082E000C990B882791702F
:104F6000A901481B590BCA0157FD019695958795D4
:104F7000919581959109865B898360E88FE30E9412
:104F8000131287FD05C08EE296E00E94910DD12C90
:104F90008AE30E94F9118BE791E00197F1F700C0D5
:104FA00000000E940A1284E30E94F911DD2051F1F1
:104FB000DC868D8596E798279D8721E04D2D50E072
:104FC000BA0161507109A22FB0E0F801EA0FFB1F8E
:104FD0009081A617B70774F48452892780832F5FC6
:104FE000892FF1CF8DE196E00E948C0D8D2D0E94CE
:104FF0001D24CDCF8E8589278083B801C7010196F6
:105000000E943C53F701D0821C868B8580FF08C02C
:105010000E94DA1184E30E94F9118B858E7F8B87C1
:10502000F7018081DF91CF911F910F91FF90EF9059
:10503000DF90CF90BF90AF9008952F923F924F9204
:105040005F926F927F928F929F92AF92BF92CF9218
:10505000DF92EF92FF920F931F93CF93DF93CDB721
:10506000DEB7A3970FB6F894DEBF0FBECDBF6C01BD
:105070007B01BA01C7010E94510EB7016C5F7F4FDF
:10508000F60182A593A50E94D512F701828180685E
:10509000828346E064E1F601848195810E94D11803
:1050A000782E811102C077247394F6010481158152
:1050B00085E00E94EE0D8F3F09F450C0682FC801B3
:1050C0000E940115829586958695837088A3882312
:1050D00041F0F6018281938162E070E002960E94C5
:1050E000A612C70101969BA38AA32AE0422E512C47
:1050F000612C470197E0890E911C772009F47AC151
:10510000F60102811381F701828180718E8F58012F
:10511000FDE2AF0EB11CF701408150E06AA17BA116
:10512000C5010E943C53F7012081F80124A785A501
:10513000F6E78F27F80185A796A561E02150330B8C
:10514000462F50E0F501E40FF51F70814217530719
:1051500044F48452872780836F5FF2CFF1E0F8A395
:10516000B8CF892F87278083F801F4A5F9A3B80168
:105170006E5D7F4FF80132A4332039F08FEC97E059
:105180000197F1F700C00000F5CF47A250A661A635
:1051900021E022A787E895E00E94FB0EF80183A595
:1051A00080FF0BC00E94DA110E940A1284E30E9461
:1051B000F911F80183A58E7F83A7F80183A582608A
:1051C00083A786E30E94F9118BE30E94F91198EC02
:1051D000292E85E30E94F91187EC90E00197F1F701
:1051E00000C000002A94211074C086E30E94F911C7
:1051F0008BE30E94F9118DE30E94F91184E30E9470
:10520000F91160EC85E30E9413128D30B9F7B12CCF
:10521000F80183A58D7F83A782E495E00E948C0D21
:10522000C7010E941F237A94BB2009F466CFF701BF
:10523000828185FF27C0C4010E942F0E882311F1AF
:10524000CE0101960E94210E1CE3F601828193811A
:10525000FC0123A522FD8AC08FE19EE40197F1F7AE
:1052600000C00000115089F788E395E00E948C0D82
:10527000832D0E947A2287E395E00E94910D3320CE
:1052800009F43BCFF8A111E0FF2349F0F601828138
:10529000938111E063E070E002960E94A612812FD4
:1052A000A3960FB6F894DEBF0FBECDBFDF91CF91AE
:1052B0001F910F91FF90EF90DF90CF90BF90AF9034
:1052C0009F908F907F906F905F904F903F902F9026
:1052D000089560EC85E30E941312833109F079CFC1
:1052E000EFE1FEE43197F1F700C00000FE8DFF23EF
:1052F00049F02FE78BE898E0215080409040E1F79B
:1053000000C0000069A18FE30E94E51180E590E0F4
:105310000E946C050E94150A8FE70E94D3112A2C67
:10532000AE8EBF8E8E8D8219E9A18E1740F4EE8D60
:10533000FF8D8191FF8FEE8F0E94D311F3CF0E94DA
:10534000110A88ECB82E60EC85E30E9413128D30B0
:1053500019F4BB24B3945CCF87EC90E00197F1F78C
:1053600000C00000BA94B110EECFF3CFBE016F5F62
:105370007F4F80960E946B27882309F46DCF83E3CB
:1053800095E00E948C0DCE0101960E941F23F7012B
:1053900091818A81981360CFBE016B5F7F4FC401FA
:1053A0000E943E0E882309F457CF8C81823049F445
:1053B0008B85982F9095392E331C3324331C87FD11
:1053C000712CF701828181FD03C08B8180FF4CCF5E
:1053D000F6018281938142E350E060E070E04796FD
:1053E0000E945C1141CFF6018281938110E064E05C
:1053F00070E052CFF8A1F111F6CF10E050CF3F92FC
:105400004F925F926F927F928F929F92AF92BF92D4
:10541000CF92DF92EF92FF920F931F93CF93DF9380
:10542000CDB7DEB728970FB6F894DEBF0FBECDBF5D
:10543000FC01A085B18518960D911C911997580112
:105440008BE0A80EB11C3385228581E0820F828714
:105450001B969C91D80116968C9116978F5F169685
:105460008C9316974CE01B964C931B9741E41E9629
:105470004C931E9742E21D964C931D979F73559631
:105480009C9355971C968C931C9756962C935697E5
:1054900057963C930084F185E02DE084F184912CB3
:1054A000812C412C6F01B8E0CB0ED11C3801EFE00C
:1054B0006E0E711CFAE08F16910409F496C0482D07
:1054C000B601CE0105960E94C21DCE0105960E942E
:1054D0002F0E382E882309F44EC0512C452DB601CD
:1054E000CE0101960E94C21DBE016F5F7F4FCE01AB
:1054F00005960E943E0E811106C053948AE0581210
:10550000EDCF55245A9458141904ACF11B821A8219
:105510001982BE016F5F7F4FD7019A968D919C9142
:105520000E94D512BE016F5F7F4FCE0105960E948B
:105530003E0E882371F1B301F70182A593A50E9465
:10554000D512B301C5010E94510ED8011D968C9150
:105550001D9785FF14C08F7D1D968C93D701ED910B
:10556000FC910680F781E02DB501C7010995F8018E
:10557000858580628587BFEF8B1A9B0A9BCFD701F9
:10558000ED91FC910680F781E02DB501C7010995E9
:10559000F2CFBE016B5F7F4FC6010E94E01E9A836F
:1055A000898341E06FED75E081E00E94D10D8F3F6E
:1055B000A1F0682FCE0101960E94011580FF0DC059
:1055C000F801858580618587AE014B5F5F4FB5012E
:1055D000C7010E941D28432CCECFD8011D968C9167
:1055E0001D978F7E1D968C93EFCF41100EC0F70153
:1055F00064817581CE0101960E94E718AE014F5F6C
:105600005F4FB501C7010E941D2828960FB6F89478
:10561000DEBF0FBECDBFDF91CF911F910F91FF90E5
:10562000EF90DF90CF90BF90AF909F908F907F9042
:105630006F905F904F903F900895CF92DF92EF92DE
:10564000FF920F931F93CF93DF9300D0CDB7DEB7B8
:105650008C01CB0124E630E040E0D80115962D9373
:105660003D934C93B8010E94FB0EF801E18C60A1C0
:10567000878D0E942B12D8011C962D913C911D976D
:1056800081114FC081E05E968C933A83298326E096
:1056900043E060E2CE0101960E94BC15813009F41E
:1056A00047C0823009F446C0833011F424E6E22E6C
:1056B000D80159968C9159978F3F09F03EC0599661
:1056C000EC92D8015A968C91882301F160E00E94F7
:1056D0002B12FF24F3948111F12CF801838DF8161D
:1056E000A9F00084F185E02D41E060E1848195819D
:1056F0000E94D118882351F0D8015B96FC925B97E9
:105700001A968C911A9781601A968C930F900F902D
:10571000DF91CF911F910F91FF90EF90DF90CF908D
:10572000089582E0F801868F3A83298324E0B0CF80
:10573000E12CBECF98ECE92EBBCF8E1511F2F8010B
:10574000848595859A83898381E20E94E70DF12CF7
:105750008F3F31F0682FCE0101960E940115F82E7F
:10576000D8015996EC926801BEE0CB0ED11CC6015F
:105770000E942210F1105BC067E875E0C6010E942C
:10578000FF29F801848595859A83898382E20E94A6
:10579000E70D8F3F09F473C0682FCE0101960E9478
:1057A0000115F5E08F9F900111242115310509F4B1
:1057B00088CFD8011896ED91FC91E280F380F70133
:1057C000828581117ECFA4E6B0E00E94014F28EED1
:1057D00033E040E050E00E94D850211531054105EA
:1057E000510509F46ECF6701F2E0CF0ED11C82E0C3
:1057F000D7011A968C931A9781E01B968C93AAE096
:10580000B0E00E94F64E24E630E040E050E00E9416
:10581000D850F70124871586138A128A67E875E045
:10582000C6010E94D60FC6010E94630D4ACF81E0D7
:1058300089838CE38A832F2D2F7730E0A4E6B0E0B4
:105840000E94014F9B01AC01EF2DF0E0EE0FEF2F16
:10585000EE1FFF0B81E090E08C0F9D1FE80FF91FFA
:10586000A081B0E00E94F64ED80153966D937D93CF
:105870008C93B60187E895E00E94FB0E82CF84E608
:1058800090CF0F931F93CF93DF93EC018B018AE1AD
:105890008B871E861D864C871E8A6AA57BA5FB0109
:1058A000719684913197E491ED8B8AA3625F7F4F6B
:1058B00042E050E0CE0146960E94184B6AA57BA5B7
:1058C0006D5F7F4F4AE050E0CE0148960E94184B32
:1058D0008DA58BA36AA57BA56E5E7F4F42E050E04D
:1058E000CE0184960E94184BBE01655F7F4FA801D0
:1058F000CE01DF91CF911F910F910C941D289F92A3
:10590000AF92BF92CF92DF92EF92FF920F931F93CD
:10591000CF93DF93EC015B01942E79016C018BE056
:10592000C80ED11CEA81FB8111A1D901ED91FC9136
:105930000084F185E02DC90109959EE09B8790E1E7
:105940009E8792E29D8796E09D8B9C868E8BD701E9
:10595000ED91FC9106A4F7A5E02DC70109958F8B69
:10596000D701ED91FC9100A8F1A9E02DC70109959F
:10597000888F198F011103C08D858F7D8D87D70189
:10598000ED91FC9102A8F3A9E02DB601C70109959C
:10599000A501B601CE010E941D28D701ED91FC9111
:1059A0000088F189E02D60E0C701DF91CF911F9160
:1059B0000F91FF90EF90DF90CF90BF90AF909F90AE
:1059C00009942F923F924F925F926F927F928F92A3
:1059D0009F92AF92BF92CF92DF92EF92FF920F937E
:1059E0001F93CF93DF93CDB7DEB7A3970FB6F8948D
:1059F000DEBF0FBECDBF6C017B011BA21AA219A294
:105A0000BE016F5D7F4FDC019A968D919C910E9443
:105A1000D5123701B7E06B0E711CBE016F5D7F4F71
:105A2000C3010E943E0E082F882309F461C0F601CD
:105A3000028113815801F2E2AF0EB11CC5010E9430
:105A400022108AE090E0A0E0F80187A390A7A1A728
:105A500081E082A7B50187E895E00E94FB0E8BE507
:105A600095E00E948C0DC7010E941F23D70112965A
:105A70008C9186FD8CC0D70114968C911497F601F9
:105A8000878315968C911597808716968C9116971B
:105A9000818711968C911197828713965C9013974A
:105AA0001A96BC901A971B969C90F1E05F1298C3CF
:105AB0008AE098127FC0D6019A966D917C916D5FB5
:105AC0007F4F4AE050E0CE0101960E94184B4AE019
:105AD00050E0BE016F5F7F4FC7010C960E942F53AD
